{
  "transactions": [
    {
      "hash": "0xef19124b8052a6cce7213919d15470213665532ae6d4e3cd552feaeb057c40e0",
      "transactionType": "CALL",
      "contractName": null,
      "contractAddress": "0xe7f1725e7734ce288f8367e1bb143e90bb3f0512",
      "function": "issueCredits(address,uint256)",
      "arguments": [
        "0xf39Fd6e51aad88F6F4ce6aB8827279cffFb92266",
        "5000"
      ],
      "transaction": {
        "from": "0xf39fd6e51aad88f6f4ce6ab8827279cfffb92266",
        "to": "0xe7f1725e7734ce288f8367e1bb143e90bb3f0512",
        "gas": "0x19642",
        "value": "0x0",
        "input": "0x31b00f7a000000000000000000000000f39fd6e51aad88f6f4ce6ab8827279cfffb922660000000000000000000000000000000000000000000000000000000000001388",
        "nonce": "0x5",
        "chainId": "0x7a69"
      },
      "additionalContracts": [],
      "isFixedGasLimit": false
    },
    {
      "hash": "0xa53ecd130b66db203b079e906d827a4686f1747a26c9259e47ba1adc88114ba6",
      "transactionType": "CALL",
      "contractName": null,
      "contractAddress": "0xe7f1725e7734ce288f8367e1bb143e90bb3f0512",
      "function": "approve(address,uint256)",
      "arguments": [
        "0x9fE46736679d2D9a65F0992F2272dE9f3c7fa6e0",
        "5000"
      ],
      "transaction": {
        "from": "0xf39fd6e51aad88f6f4ce6ab8827279cfffb92266",
        "to": "0xe7f1725e7734ce288f8367e1bb143e90bb3f0512",
        "gas": "0xfcf1",
        "value": "0x0",
        "input": "0x095ea7b30000000000000000000000009fe46736679d2d9a65f0992f2272de9f3c7fa6e00000000000000000000000000000000000000000000000000000000000001388",
        "nonce": "0x6",
        "chainId": "0x7a69"
      },
      "additionalContracts": [],
      "isFixedGasLimit": false
    },
    {
      "hash": "0xac33d67e6a44d5d1c7ba31404e2c6a281f4dbe7ed53bfb4f42d5478174887f5d",
      "transactionType": "CALL",
      "contractName": null,
      "contractAddress": "0x9fe46736679d2d9a65f0992f2272de9f3c7fa6e0",
      "function": "listCredits(uint256,uint256)",
      "arguments": [
        "5000",
        "10000000000000"
      ],
      "transaction": {
        "from": "0xf39fd6e51aad88f6f4ce6ab8827279cfffb92266",
        "to": "0x9fe46736679d2d9a65f0992f2272de9f3c7fa6e0",
        "gas": "0x3962a",
        "value": "0x0",
        "input": "0x353395e60000000000000000000000000000000000000000000000000000000000001388000000000000000000000000000000000000000000000000000009184e72a000",
        "nonce": "0x7",
        "chainId": "0x7a69"
      },
      "additionalContracts": [],
      "isFixedGasLimit": false
    }
  ],
  "receipts": [
    {
      "status": "0x1",
      "cumulativeGasUsed": "0x115c9",
      "logs": [
        {
          "address": "0xe7f1725e7734ce288f8367e1bb143e90bb3f0512",
          "topics": [
            "0xddf252ad1be2c89b69c2b068fc378daa952ba7f163c4a11628f55a4df523b3ef",
            "0x0000000000000000000000000000000000000000000000000000000000000000",
            "0x000000000000000000000000f39fd6e51aad88f6f4ce6ab8827279cfffb92266"
          ],
          "data": "0x0000000000000000000000000000000000000000000000000000000000001388",
          "blockHash": "0x126817051127c9288c3889b1500a4ab37505289eb588df37c503997c275045f0",
          "blockNumber": "0x5",
          "blockTimestamp": "0x69b0b3c4",
          "transactionHash": "0xef19124b8052a6cce7213919d15470213665532ae6d4e3cd552feaeb057c40e0",
          "transactionIndex": "0x0",
          "logIndex": "0x0",
          "removed": false
        }
      ],
      "logsBloom": "0x00000000000000000000000000000000000000000000000000000000000000000000000000000000000000000000000010000000000000000000000000000000000000000000000000000008000000000000000000000000000000000000000000000000020000000000000100000800000000000000000000000010000000000000000000000000000000000000000000000000000000000000000000000000000000000000000000000000000000000000000000000000000000000000000000000002000000200000000000001000000000002000000000000000000020000000000000000000000000000000000000000000000000800000000000000000",
      "type": "0x2",
      "transactionHash": "0xef19124b8052a6cce7213919d15470213665532ae6d4e3cd552feaeb057c40e0",
      "transactionIndex": "0x0",
      "blockHash": "0x126817051127c9288c3889b1500a4ab37505289eb588df37c503997c275045f0",
      "blockNumber": "0x5",
      "gasUsed": "0x115c9",
      "effectiveGasPrice": "0x24bfe17b",
      "blobGasPrice": "0x1",
      "from": "0xf39fd6e51aad88f6f4ce6ab8827279cfffb92266",
      "to": "0xe7f1725e7734ce288f8367e1bb143e90bb3f0512",
      "contractAddress": null
    },
    {
      "status": "0x1",
      "cumulativeGasUsed": "0xb720",
      "logs": [
        {
          "address": "0xe7f1725e7734ce288f8367e1bb143e90bb3f0512",
          "topics": [
            "0x8c5be1e5ebec7d5bd14f71427d1e84f3dd0314c0f7b2291e5b200ac8c7c3b925",
            "0x000000000000000000000000f39fd6e51aad88f6f4ce6ab8827279cfffb92266",
            "0x0000000000000000000000009fe46736679d2d9a65f0992f2272de9f3c7fa6e0"
          ],
          "data": "0x0000000000000000000000000000000000000000000000000000000000001388",
          "blockHash": "0x55e240dd4565a84a5572f7ab2b226578c4295a73fe0b3d3b966f598af95ab3bf",
          "blockNumber": "0x6",
          "blockTimestamp": "0x69b0b3c4",
          "transactionHash": "0xa53ecd130b66db203b079e906d827a4686f1747a26c9259e47ba1adc88114ba6",
          "transactionIndex": "0x0",
          "logIndex": "0x0",
          "removed": false
        }
      ],
      "logsBloom": "0x00000000000000000000000000000000000000000000000000000000000000000000000000000000000400000000000010400000000000000000000000200000000000000000000000000000000000000000000000000000000000000000400000000000000000000000000100000000000000000000000000000000000000000000000000000000000000000000000000000000000000000000000000000000020000000000000000000000000000000000000000000000000000000000000000000000000000200000000000001000000000002000000000000000000000000010000000000000000000000000000000000000000000800000000000000000",
      "type": "0x2",
      "transactionHash": "0xa53ecd130b66db203b079e906d827a4686f1747a26c9259e47ba1adc88114ba6",
      "transactionIndex": "0x0",
      "blockHash": "0x55e240dd4565a84a5572f7ab2b226578c4295a73fe0b3d3b966f598af95ab3bf",
      "blockNumber": "0x6",
      "gasUsed": "0xb720",
      "effectiveGasPrice": "0x202d788c",
      "blobGasPrice": "0x1",
      "from": "0xf39fd6e51aad88f6f4ce6ab8827279cfffb92266",
      "to": "0xe7f1725e7734ce288f8367e1bb143e90bb3f0512",
      "contractAddress": null
    },
    {
      "status": "0x1",
      "cumulativeGasUsed": "0x298bd",
      "logs": [
        {
          "address": "0xe7f1725e7734ce288f8367e1bb143e90bb3f0512",
          "topics": [
            "0xddf252ad1be2c89b69c2b068fc378daa952ba7f163c4a11628f55a4df523b3ef",
            "0x000000000000000000000000f39fd6e51aad88f6f4ce6ab8827279cfffb92266",
            "0x0000000000000000000000009fe46736679d2d9a65f0992f2272de9f3c7fa6e0"
          ],
          "data": "0x0000000000000000000000000000000000000000000000000000000000001388",
          "blockHash": "0xd99daa75dfa3fb401a2ee4d5fec4a63d81c1ec090d2c22fdb9a5367056641861",
          "blockNumber": "0x7",
          "blockTimestamp": "0x69b0b3c4",
          "transactionHash": "0xac33d67e6a44d5d1c7ba31404e2c6a281f4dbe7ed53bfb4f42d5478174887f5d",
          "transactionIndex": "0x0",
          "logIndex": "0x0",
          "removed": false
        },
        {
          "address": "0x9fe46736679d2d9a65f0992f2272de9f3c7fa6e0",
          "topics": [
            "0x98868c46d49b200d82c273c9f28d73265826ca6567690262736450563dfff64c",
            "0x0000000000000000000000000000000000000000000000000000000000000000",
            "0x000000000000000000000000f39fd6e51aad88f6f4ce6ab8827279cfffb92266"
          ],
          "data": "0x0000000000000000000000000000000000000000000000000000000000001388000000000000000000000000000000000000000000000000000009184e72a000",
          "blockHash": "0xd99daa75dfa3fb401a2ee4d5fec4a63d81c1ec090d2c22fdb9a5367056641861",
          "blockNumber": "0x7",
          "blockTimestamp": "0x69b0b3c4",
          "transactionHash": "0xac33d67e6a44d5d1c7ba31404e2c6a281f4dbe7ed53bfb4f42d5478174887f5d",
          "transactionIndex": "0x0",
          "logIndex": "0x1",
          "removed": false
        }
      ],
      "logsBloom": "0x00000000000000000000000000000000000000000000000000000000000000000010000000000000000400000000000010400000000040200000000000000000000000000000000000000008000000000000000000000000000000000000400000002000020000000000000100000800000000000000000000000010000000000000000000000000000000000000000000000000000000000000000004000000000000000000000000000000000000000000000000000000000000000000000000000002000000200000000000001000000000002000000000000000000020000000000000000000000000000000000000000000000000c00000000000000000",
      "type": "0x2",
      "transactionHash": "0xac33d67e6a44d5d1c7ba31404e2c6a281f4dbe7ed53bfb4f42d5478174887f5d",
      "transactionIndex": "0x0",
      "blockHash": "0xd99daa75dfa3fb401a2ee4d5fec4a63d81c1ec090d2c22fdb9a5367056641861",
      "blockNumber": "0x7",
      "gasUsed": "0x298bd",
      "effectiveGasPrice": "0x1c2b0151",
      "blobGasPrice": "0x1",
      "from": "0xf39fd6e51aad88f6f4ce6ab8827279cfffb92266",
      "to": "0x9fe46736679d2d9a65f0992f2272de9f3c7fa6e0",
      "contractAddress": null
    }
  ],
  "libraries": [],
  "pending": [],
  "returns": {},
  "timestamp": 1773188037181,
  "chain": 31337,
  "commit": "2e6e9b0"
}