{
  "transactions": [
    {
      "hash": "0xa25acdfb70976c171f783b2318832fc1884c6c17f08043737bad711779d3521e",
      "transactionType": "CALL",
      "contractName": null,
      "contractAddress": "0xe7f1725e7734ce288f8367e1bb143e90bb3f0512",
      "function": "issueCredits(address,uint256)",
      "arguments": [
        "0xf39Fd6e51aad88F6F4ce6aB8827279cffFb92266",
        "5000"
      ],
      "transaction": {
        "from": "0xf39fd6e51aad88f6f4ce6ab8827279cfffb92266",
        "to": "0xe7f1725e7734ce288f8367e1bb143e90bb3f0512",
        "gas": "0x19642",
        "value": "0x0",
        "input": "0x31b00f7a000000000000000000000000f39fd6e51aad88f6f4ce6ab8827279cfffb922660000000000000000000000000000000000000000000000000000000000001388",
        "nonce": "0x5",
        "chainId": "0x7a69"
      },
      "additionalContracts": [],
      "isFixedGasLimit": false
    },
    {
      "hash": "0x8ed6bb979b73cc33a3a222a8c96fa15412548ddb23fa1649cdc8aecc18d542c4",
      "transactionType": "CALL",
      "contractName": null,
      "contractAddress": "0xe7f1725e7734ce288f8367e1bb143e90bb3f0512",
      "function": "approve(address,uint256)",
      "arguments": [
        "0x9fE46736679d2D9a65F0992F2272dE9f3c7fa6e0",
        "5000"
      ],
      "transaction": {
        "from": "0xf39fd6e51aad88f6f4ce6ab8827279cfffb92266",
        "to": "0xe7f1725e7734ce288f8367e1bb143e90bb3f0512",
        "gas": "0xfcf1",
        "value": "0x0",
        "input": "0x095ea7b30000000000000000000000009fe46736679d2d9a65f0992f2272de9f3c7fa6e00000000000000000000000000000000000000000000000000000000000001388",
        "nonce": "0x6",
        "chainId": "0x7a69"
      },
      "additionalContracts": [],
      "isFixedGasLimit": false
    },
    {
      "hash": "0x62e56b78bf457465f2c14c3072add4ce54378aca4dc662a033df974f3ece262b",
      "transactionType": "CALL",
      "contractName": null,
      "contractAddress": "0x9fe46736679d2d9a65f0992f2272de9f3c7fa6e0",
      "function": "listCredits(uint256,uint256)",
      "arguments": [
        "5000",
        "10000000000000"
      ],
      "transaction": {
        "from": "0xf39fd6e51aad88f6f4ce6ab8827279cfffb92266",
        "to": "0x9fe46736679d2d9a65f0992f2272de9f3c7fa6e0",
        "gas": "0x3962a",
        "value": "0x0",
        "input": "0x353395e60000000000000000000000000000000000000000000000000000000000001388000000000000000000000000000000000000000000000000000009184e72a000",
        "nonce": "0x7",
        "chainId": "0x7a69"
      },
      "additionalContracts": [],
      "isFixedGasLimit": false
    }
  ],
  "receipts": [
    {
      "status": "0x1",
      "cumulativeGasUsed": "0x115c9",
      "logs": [
        {
          "address": "0xe7f1725e7734ce288f8367e1bb143e90bb3f0512",
          "topics": [
            "0xddf252ad1be2c89b69c2b068fc378daa952ba7f163c4a11628f55a4df523b3ef",
            "0x0000000000000000000000000000000000000000000000000000000000000000",
            "0x000000000000000000000000f39fd6e51aad88f6f4ce6ab8827279cfffb92266"
          ],
          "data": "0x0000000000000000000000000000000000000000000000000000000000001388",
          "blockHash": "0xd01125250d7351e7e5bb5a1a9682e03738d0e6852fd98bf9497060ed4fb09485",
          "blockNumber": "0x4",
          "blockTimestamp": "0x6a30ba5c",
          "transactionHash": "0xa25acdfb70976c171f783b2318832fc1884c6c17f08043737bad711779d3521e",
          "transactionIndex": "0x0",
          "logIndex": "0x0",
          "removed": false
        }
      ],
      "logsBloom": "0x00000000000000000000000000000000000000000000000000000000000000000000000000000000000000000000000010000000000000000000000000000000000000000000000000000008000000000000000000000000000000000000000000000000020000000000000100000800000000000000000000000010000000000000000000000000000000000000000000000000000000000000000000000000000000000000000000000000000000000000000000000000000000000000000000000002000000200000000000001000000000002000000000000000000020000000000000000000000000000000000000000000000000800000000000000000",
      "type": "0x2",
      "transactionHash": "0xa25acdfb70976c171f783b2318832fc1884c6c17f08043737bad711779d3521e",
      "transactionIndex": "0x0",
      "blockHash": "0xd01125250d7351e7e5bb5a1a9682e03738d0e6852fd98bf9497060ed4fb09485",
      "blockNumber": "0x4",
      "gasUsed": "0x115c9",
      "effectiveGasPrice": "0x2a21d62a",
      "blobGasPrice": "0x1",
      "from": "0xf39fd6e51aad88f6f4ce6ab8827279cfffb92266",
      "to": "0xe7f1725e7734ce288f8367e1bb143e90bb3f0512",
      "contractAddress": null
    },
    {
      "status": "0x1",
      "cumulativeGasUsed": "0xb720",
      "logs": [
        {
          "address": "0xe7f1725e7734ce288f8367e1bb143e90bb3f0512",
          "topics": [
            "0x8c5be1e5ebec7d5bd14f71427d1e84f3dd0314c0f7b2291e5b200ac8c7c3b925",
            "0x000000000000000000000000f39fd6e51aad88f6f4ce6ab8827279cfffb92266",
            "0x0000000000000000000000009fe46736679d2d9a65f0992f2272de9f3c7fa6e0"
          ],
          "data": "0x0000000000000000000000000000000000000000000000000000000000001388",
          "blockHash": "0x5856d22952113ca230229d35d490fde4a283545aee7ff1ec9cfc9b7cb9d1a033",
          "blockNumber": "0x5",
          "blockTimestamp": "0x6a30ba5c",
          "transactionHash": "0x8ed6bb979b73cc33a3a222a8c96fa15412548ddb23fa1649cdc8aecc18d542c4",
          "transactionIndex": "0x0",
          "logIndex": "0x0",
          "removed": false
        }
      ],
      "logsBloom": "0x00000000000000000000000000000000000000000000000000000000000000000000000000000000000400000000000010400000000000000000000000200000000000000000000000000000000000000000000000000000000000000000400000000000000000000000000100000000000000000000000000000000000000000000000000000000000000000000000000000000000000000000000000000000020000000000000000000000000000000000000000000000000000000000000000000000000000200000000000001000000000002000000000000000000000000010000000000000000000000000000000000000000000800000000000000000",
      "type": "0x2",
      "transactionHash": "0x8ed6bb979b73cc33a3a222a8c96fa15412548ddb23fa1649cdc8aecc18d542c4",
      "transactionIndex": "0x0",
      "blockHash": "0x5856d22952113ca230229d35d490fde4a283545aee7ff1ec9cfc9b7cb9d1a033",
      "blockNumber": "0x5",
      "gasUsed": "0xb720",
      "effectiveGasPrice": "0x24e3ffb1",
      "blobGasPrice": "0x1",
      "from": "0xf39fd6e51aad88f6f4ce6ab8827279cfffb92266",
      "to": "0xe7f1725e7734ce288f8367e1bb143e90bb3f0512",
      "contractAddress": null
    },
    {
      "status": "0x1",
      "cumulativeGasUsed": "0x298bd",
      "logs": [
        {
          "address": "0xe7f1725e7734ce288f8367e1bb143e90bb3f0512",
          "topics": [
            "0xddf252ad1be2c89b69c2b068fc378daa952ba7f163c4a11628f55a4df523b3ef",
            "0x000000000000000000000000f39fd6e51aad88f6f4ce6ab8827279cfffb92266",
            "0x0000000000000000000000009fe46736679d2d9a65f0992f2272de9f3c7fa6e0"
          ],
          "data": "0x0000000000000000000000000000000000000000000000000000000000001388",
          "blockHash": "0x890dd63126ad97161d5c39d22b2ecc928cf88c7fcb772b3a65b6ff341c844b6a",
          "blockNumber": "0x6",
          "blockTimestamp": "0x6a30ba5c",
          "transactionHash": "0x62e56b78bf457465f2c14c3072add4ce54378aca4dc662a033df974f3ece262b",
          "transactionIndex": "0x0",
          "logIndex": "0x0",
          "removed": false
        },
        {
          "address": "0x9fe46736679d2d9a65f0992f2272de9f3c7fa6e0",
          "topics": [
            "0x98868c46d49b200d82c273c9f28d73265826ca6567690262736450563dfff64c",
            "0x0000000000000000000000000000000000000000000000000000000000000000",
            "0x000000000000000000000000f39fd6e51aad88f6f4ce6ab8827279cfffb92266"
          ],
          "data": "0x0000000000000000000000000000000000000000000000000000000000001388000000000000000000000000000000000000000000000000000009184e72a000",
          "blockHash": "0x890dd63126ad97161d5c39d22b2ecc928cf88c7fcb772b3a65b6ff341c844b6a",
          "blockNumber": "0x6",
          "blockTimestamp": "0x6a30ba5c",
          "transactionHash": "0x62e56b78bf457465f2c14c3072add4ce54378aca4dc662a033df974f3ece262b",
          "transactionIndex": "0x0",
          "logIndex": "0x1",
          "removed": false
        }
      ],
      "logsBloom": "0x00000000000000000000000000000000000000000000000000000000000000000010000000000000000400000000000010400000000040200000000000000000000000000000000000000008000000000000000000000000000000000000400000002000020000000000000100000800000000000000000000000010000000000000000000000000000000000000000000000000000000000000000004000000000000000000000000000000000000000000000000000000000000000000000000000002000000200000000000001000000000002000000000000000000020000000000000000000000000000000000000000000000000c00000000000000000",
      "type": "0x2",
      "transactionHash": "0x62e56b78bf457465f2c14c3072add4ce54378aca4dc662a033df974f3ece262b",
      "transactionIndex": "0x0",
      "blockHash": "0x890dd63126ad97161d5c39d22b2ecc928cf88c7fcb772b3a65b6ff341c844b6a",
      "blockNumber": "0x6",
      "gasUsed": "0x298bd",
      "effectiveGasPrice": "0x204b303c",
      "blobGasPrice": "0x1",
      "from": "0xf39fd6e51aad88f6f4ce6ab8827279cfffb92266",
      "to": "0x9fe46736679d2d9a65f0992f2272de9f3c7fa6e0",
      "contractAddress": null
    }
  ],
  "libraries": [],
  "pending": [],
  "returns": {},
  "timestamp": 1781578333068,
  "chain": 31337,
  "commit": "22800bc"
}