{
  "transactions": [
    {
      "hash": "0x87315092f9e7b36eaa1a109662cec51624f46d3a3d2d6d21104ea80d06557ef4",
      "transactionType": "CALL",
      "contractName": null,
      "contractAddress": "0xe7f1725e7734ce288f8367e1bb143e90bb3f0512",
      "function": "issueCredits(address,uint256)",
      "arguments": [
        "0xf39Fd6e51aad88F6F4ce6aB8827279cffFb92266",
        "5000"
      ],
      "transaction": {
        "from": "0xf39fd6e51aad88f6f4ce6ab8827279cfffb92266",
        "to": "0xe7f1725e7734ce288f8367e1bb143e90bb3f0512",
        "gas": "0xd2e1",
        "value": "0x0",
        "input": "0x31b00f7a000000000000000000000000f39fd6e51aad88f6f4ce6ab8827279cfffb922660000000000000000000000000000000000000000000000000000000000001388",
        "nonce": "0x14",
        "chainId": "0x7a69"
      },
      "additionalContracts": [],
      "isFixedGasLimit": false
    },
    {
      "hash": "0x85c221ef6476c6bf90ed5250c0aa56c19faa1824b0189475fe61ebc627aa8a19",
      "transactionType": "CALL",
      "contractName": null,
      "contractAddress": "0xe7f1725e7734ce288f8367e1bb143e90bb3f0512",
      "function": "approve(address,uint256)",
      "arguments": [
        "0x9fE46736679d2D9a65F0992F2272dE9f3c7fa6e0",
        "5000"
      ],
      "transaction": {
        "from": "0xf39fd6e51aad88f6f4ce6ab8827279cfffb92266",
        "to": "0xe7f1725e7734ce288f8367e1bb143e90bb3f0512",
        "gas": "0xfcf1",
        "value": "0x0",
        "input": "0x095ea7b30000000000000000000000009fe46736679d2d9a65f0992f2272de9f3c7fa6e00000000000000000000000000000000000000000000000000000000000001388",
        "nonce": "0x15",
        "chainId": "0x7a69"
      },
      "additionalContracts": [],
      "isFixedGasLimit": false
    },
    {
      "hash": "0xb4d0dfe33d570b6c40a532aa8ca5b50de04c6f8ed24c840b5bc87abed7e12c18",
      "transactionType": "CALL",
      "contractName": null,
      "contractAddress": "0x9fe46736679d2d9a65f0992f2272de9f3c7fa6e0",
      "function": "listCredits(uint256,uint256)",
      "arguments": [
        "5000",
        "10000000000000"
      ],
      "transaction": {
        "from": "0xf39fd6e51aad88f6f4ce6ab8827279cfffb92266",
        "to": "0x9fe46736679d2d9a65f0992f2272de9f3c7fa6e0",
        "gas": "0x395e8",
        "value": "0x0",
        "input": "0x353395e60000000000000000000000000000000000000000000000000000000000001388000000000000000000000000000000000000000000000000000009184e72a000",
        "nonce": "0x16",
        "chainId": "0x7a69"
      },
      "additionalContracts": [],
      "isFixedGasLimit": false
    }
  ],
  "receipts": [
    {
      "status": "0x1",
      "cumulativeGasUsed": "0x9031",
      "logs": [
        {
          "address": "0xe7f1725e7734ce288f8367e1bb143e90bb3f0512",
          "topics": [
            "0xddf252ad1be2c89b69c2b068fc378daa952ba7f163c4a11628f55a4df523b3ef",
            "0x0000000000000000000000000000000000000000000000000000000000000000",
            "0x000000000000000000000000f39fd6e51aad88f6f4ce6ab8827279cfffb92266"
          ],
          "data": "0x0000000000000000000000000000000000000000000000000000000000001388",
          "blockHash": "0x65964949fae2c6d5900012f458d7c70a0b640ae29e951bb456532c7a57e5169b",
          "blockNumber": "0x11",
          "blockTimestamp": "0x69b3a617",
          "transactionHash": "0x87315092f9e7b36eaa1a109662cec51624f46d3a3d2d6d21104ea80d06557ef4",
          "transactionIndex": "0x0",
          "logIndex": "0x0",
          "removed": false
        }
      ],
      "logsBloom": "0x00000000000000000000000000000000000000000000000000000000000000000000000000000000000000000000000010000000000000000000000000000000000000000000000000000008000000000000000000000000000000000000000000000000020000000000000100000800000000000000000000000010000000000000000000000000000000000000000000000000000000000000000000000000000000000000000000000000000000000000000000000000000000000000000000000002000000200000000000001000000000002000000000000000000020000000000000000000000000000000000000000000000000800000000000000000",
      "type": "0x2",
      "transactionHash": "0x87315092f9e7b36eaa1a109662cec51624f46d3a3d2d6d21104ea80d06557ef4",
      "transactionIndex": "0x0",
      "blockHash": "0x65964949fae2c6d5900012f458d7c70a0b640ae29e951bb456532c7a57e5169b",
      "blockNumber": "0x11",
      "gasUsed": "0x9031",
      "effectiveGasPrice": "0x7e4d4d6",
      "blobGasPrice": "0x1",
      "from": "0xf39fd6e51aad88f6f4ce6ab8827279cfffb92266",
      "to": "0xe7f1725e7734ce288f8367e1bb143e90bb3f0512",
      "contractAddress": null
    },
    {
      "status": "0x1",
      "cumulativeGasUsed": "0xb720",
      "logs": [
        {
          "address": "0xe7f1725e7734ce288f8367e1bb143e90bb3f0512",
          "topics": [
            "0x8c5be1e5ebec7d5bd14f71427d1e84f3dd0314c0f7b2291e5b200ac8c7c3b925",
            "0x000000000000000000000000f39fd6e51aad88f6f4ce6ab8827279cfffb92266",
            "0x0000000000000000000000009fe46736679d2d9a65f0992f2272de9f3c7fa6e0"
          ],
          "data": "0x0000000000000000000000000000000000000000000000000000000000001388",
          "blockHash": "0xff41d92df03473e148898c5814d23491824d21628f07ee65c417abf064a538d0",
          "blockNumber": "0x12",
          "blockTimestamp": "0x69b3a617",
          "transactionHash": "0x85c221ef6476c6bf90ed5250c0aa56c19faa1824b0189475fe61ebc627aa8a19",
          "transactionIndex": "0x0",
          "logIndex": "0x0",
          "removed": false
        }
      ],
      "logsBloom": "0x00000000000000000000000000000000000000000000000000000000000000000000000000000000000400000000000010400000000000000000000000200000000000000000000000000000000000000000000000000000000000000000400000000000000000000000000100000000000000000000000000000000000000000000000000000000000000000000000000000000000000000000000000000000020000000000000000000000000000000000000000000000000000000000000000000000000000200000000000001000000000002000000000000000000000000010000000000000000000000000000000000000000000800000000000000000",
      "type": "0x2",
      "transactionHash": "0x85c221ef6476c6bf90ed5250c0aa56c19faa1824b0189475fe61ebc627aa8a19",
      "transactionIndex": "0x0",
      "blockHash": "0xff41d92df03473e148898c5814d23491824d21628f07ee65c417abf064a538d0",
      "blockNumber": "0x12",
      "gasUsed": "0xb720",
      "effectiveGasPrice": "0x6e8d95f",
      "blobGasPrice": "0x1",
      "from": "0xf39fd6e51aad88f6f4ce6ab8827279cfffb92266",
      "to": "0xe7f1725e7734ce288f8367e1bb143e90bb3f0512",
      "contractAddress": null
    },
    {
      "status": "0x1",
      "cumulativeGasUsed": "0x273a1",
      "logs": [
        {
          "address": "0xe7f1725e7734ce288f8367e1bb143e90bb3f0512",
          "topics": [
            "0xddf252ad1be2c89b69c2b068fc378daa952ba7f163c4a11628f55a4df523b3ef",
            "0x000000000000000000000000f39fd6e51aad88f6f4ce6ab8827279cfffb92266",
            "0x0000000000000000000000009fe46736679d2d9a65f0992f2272de9f3c7fa6e0"
          ],
          "data": "0x0000000000000000000000000000000000000000000000000000000000001388",
          "blockHash": "0xbe4c53b80d4ebbc6fa497ba1d06de0eb390af963a0ca4385a5bae657578999da",
          "blockNumber": "0x13",
          "blockTimestamp": "0x69b3a617",
          "transactionHash": "0xb4d0dfe33d570b6c40a532aa8ca5b50de04c6f8ed24c840b5bc87abed7e12c18",
          "transactionIndex": "0x0",
          "logIndex": "0x0",
          "removed": false
        },
        {
          "address": "0x9fe46736679d2d9a65f0992f2272de9f3c7fa6e0",
          "topics": [
            "0x98868c46d49b200d82c273c9f28d73265826ca6567690262736450563dfff64c",
            "0x0000000000000000000000000000000000000000000000000000000000000003",
            "0x000000000000000000000000f39fd6e51aad88f6f4ce6ab8827279cfffb92266"
          ],
          "data": "0x0000000000000000000000000000000000000000000000000000000000001388000000000000000000000000000000000000000000000000000009184e72a000",
          "blockHash": "0xbe4c53b80d4ebbc6fa497ba1d06de0eb390af963a0ca4385a5bae657578999da",
          "blockNumber": "0x13",
          "blockTimestamp": "0x69b3a617",
          "transactionHash": "0xb4d0dfe33d570b6c40a532aa8ca5b50de04c6f8ed24c840b5bc87abed7e12c18",
          "transactionIndex": "0x0",
          "logIndex": "0x1",
          "removed": false
        }
      ],
      "logsBloom": "0x00000000000000000000000000000000000000000000000000000000000000000010000000000000000400000000000010400000020040200000000000000000000000000000000000000008000000000000000000000000000000000000400000002000000000000000000100000000000000000000000000000010000000000000000000000000000000000000000000000000000000000000000004000000000000000000000000000000000000000000000000800000000000000000400000000002000000200000000000001000000000002000000000000000000000000000000000000000000000000000000000000000000000c00000000000000000",
      "type": "0x2",
      "transactionHash": "0xb4d0dfe33d570b6c40a532aa8ca5b50de04c6f8ed24c840b5bc87abed7e12c18",
      "transactionIndex": "0x0",
      "blockHash": "0xbe4c53b80d4ebbc6fa497ba1d06de0eb390af963a0ca4385a5bae657578999da",
      "blockNumber": "0x13",
      "gasUsed": "0x273a1",
      "effectiveGasPrice": "0x60c6f1b",
      "blobGasPrice": "0x1",
      "from": "0xf39fd6e51aad88f6f4ce6ab8827279cfffb92266",
      "to": "0x9fe46736679d2d9a65f0992f2272de9f3c7fa6e0",
      "contractAddress": null
    }
  ],
  "libraries": [],
  "pending": [],
  "returns": {},
  "timestamp": 1773381143328,
  "chain": 31337,
  "commit": "3a7f462"
}