{
  "transactions": [
    {
      "hash": "0xddca290438211b47f00dc908a0833bae79ea78f99e96fe963ea214189922d6b5",
      "transactionType": "CALL",
      "contractName": null,
      "contractAddress": "0xe7f1725e7734ce288f8367e1bb143e90bb3f0512",
      "function": "issueCredits(address,uint256)",
      "arguments": [
        "0xf39Fd6e51aad88F6F4ce6aB8827279cffFb92266",
        "5000"
      ],
      "transaction": {
        "from": "0xf39fd6e51aad88f6f4ce6ab8827279cfffb92266",
        "to": "0xe7f1725e7734ce288f8367e1bb143e90bb3f0512",
        "gas": "0x19642",
        "value": "0x0",
        "input": "0x31b00f7a000000000000000000000000f39fd6e51aad88f6f4ce6ab8827279cfffb922660000000000000000000000000000000000000000000000000000000000001388",
        "nonce": "0x5",
        "chainId": "0x7a69"
      },
      "additionalContracts": [],
      "isFixedGasLimit": false
    },
    {
      "hash": "0xc3fb9a70bb769d130a6d5367df90c65c479dde2f3a16833496b50cd1f5518645",
      "transactionType": "CALL",
      "contractName": null,
      "contractAddress": "0xe7f1725e7734ce288f8367e1bb143e90bb3f0512",
      "function": "approve(address,uint256)",
      "arguments": [
        "0x9fE46736679d2D9a65F0992F2272dE9f3c7fa6e0",
        "5000"
      ],
      "transaction": {
        "from": "0xf39fd6e51aad88f6f4ce6ab8827279cfffb92266",
        "to": "0xe7f1725e7734ce288f8367e1bb143e90bb3f0512",
        "gas": "0xfcf1",
        "value": "0x0",
        "input": "0x095ea7b30000000000000000000000009fe46736679d2d9a65f0992f2272de9f3c7fa6e00000000000000000000000000000000000000000000000000000000000001388",
        "nonce": "0x6",
        "chainId": "0x7a69"
      },
      "additionalContracts": [],
      "isFixedGasLimit": false
    },
    {
      "hash": "0x2ba479e5e326dc7944b5445ff360762a15536925c9315458f5bc97f8ddce2df1",
      "transactionType": "CALL",
      "contractName": null,
      "contractAddress": "0x9fe46736679d2d9a65f0992f2272de9f3c7fa6e0",
      "function": "listCredits(uint256,uint256)",
      "arguments": [
        "5000",
        "10000000000000"
      ],
      "transaction": {
        "from": "0xf39fd6e51aad88f6f4ce6ab8827279cfffb92266",
        "to": "0x9fe46736679d2d9a65f0992f2272de9f3c7fa6e0",
        "gas": "0x3962a",
        "value": "0x0",
        "input": "0x353395e60000000000000000000000000000000000000000000000000000000000001388000000000000000000000000000000000000000000000000000009184e72a000",
        "nonce": "0x7",
        "chainId": "0x7a69"
      },
      "additionalContracts": [],
      "isFixedGasLimit": false
    }
  ],
  "receipts": [
    {
      "status": "0x1",
      "cumulativeGasUsed": "0x115c9",
      "logs": [
        {
          "address": "0xe7f1725e7734ce288f8367e1bb143e90bb3f0512",
          "topics": [
            "0xddf252ad1be2c89b69c2b068fc378daa952ba7f163c4a11628f55a4df523b3ef",
            "0x0000000000000000000000000000000000000000000000000000000000000000",
            "0x000000000000000000000000f39fd6e51aad88f6f4ce6ab8827279cfffb92266"
          ],
          "data": "0x0000000000000000000000000000000000000000000000000000000000001388",
          "blockHash": "0x835a130a8523379615af3cd1cdf042112949af357fdf1bbbaa4581685290a6a6",
          "blockNumber": "0x4",
          "blockTimestamp": "0x69b37a61",
          "transactionHash": "0xddca290438211b47f00dc908a0833bae79ea78f99e96fe963ea214189922d6b5",
          "transactionIndex": "0x0",
          "logIndex": "0x0",
          "removed": false
        }
      ],
      "logsBloom": "0x00000000000000000000000000000000000000000000000000000000000000000000000000000000000000000000000010000000000000000000000000000000000000000000000000000008000000000000000000000000000000000000000000000000020000000000000100000800000000000000000000000010000000000000000000000000000000000000000000000000000000000000000000000000000000000000000000000000000000000000000000000000000000000000000000000002000000200000000000001000000000002000000000000000000020000000000000000000000000000000000000000000000000800000000000000000",
      "type": "0x2",
      "transactionHash": "0xddca290438211b47f00dc908a0833bae79ea78f99e96fe963ea214189922d6b5",
      "transactionIndex": "0x0",
      "blockHash": "0x835a130a8523379615af3cd1cdf042112949af357fdf1bbbaa4581685290a6a6",
      "blockNumber": "0x4",
      "gasUsed": "0x115c9",
      "effectiveGasPrice": "0x2a1bf698",
      "blobGasPrice": "0x1",
      "from": "0xf39fd6e51aad88f6f4ce6ab8827279cfffb92266",
      "to": "0xe7f1725e7734ce288f8367e1bb143e90bb3f0512",
      "contractAddress": null
    },
    {
      "status": "0x1",
      "cumulativeGasUsed": "0xb720",
      "logs": [
        {
          "address": "0xe7f1725e7734ce288f8367e1bb143e90bb3f0512",
          "topics": [
            "0x8c5be1e5ebec7d5bd14f71427d1e84f3dd0314c0f7b2291e5b200ac8c7c3b925",
            "0x000000000000000000000000f39fd6e51aad88f6f4ce6ab8827279cfffb92266",
            "0x0000000000000000000000009fe46736679d2d9a65f0992f2272de9f3c7fa6e0"
          ],
          "data": "0x0000000000000000000000000000000000000000000000000000000000001388",
          "blockHash": "0x7077f338a3026bf91abfdea6023c530896a3fdf01976694e7ec32c2bdcfe9346",
          "blockNumber": "0x5",
          "blockTimestamp": "0x69b37a61",
          "transactionHash": "0xc3fb9a70bb769d130a6d5367df90c65c479dde2f3a16833496b50cd1f5518645",
          "transactionIndex": "0x0",
          "logIndex": "0x0",
          "removed": false
        }
      ],
      "logsBloom": "0x00000000000000000000000000000000000000000000000000000000000000000000000000000000000400000000000010400000000000000000000000200000000000000000000000000000000000000000000000000000000000000000400000000000000000000000000100000000000000000000000000000000000000000000000000000000000000000000000000000000000000000000000000000000020000000000000000000000000000000000000000000000000000000000000000000000000000200000000000001000000000002000000000000000000000000010000000000000000000000000000000000000000000800000000000000000",
      "type": "0x2",
      "transactionHash": "0xc3fb9a70bb769d130a6d5367df90c65c479dde2f3a16833496b50cd1f5518645",
      "transactionIndex": "0x0",
      "blockHash": "0x7077f338a3026bf91abfdea6023c530896a3fdf01976694e7ec32c2bdcfe9346",
      "blockNumber": "0x5",
      "gasUsed": "0xb720",
      "effectiveGasPrice": "0x24dedb2d",
      "blobGasPrice": "0x1",
      "from": "0xf39fd6e51aad88f6f4ce6ab8827279cfffb92266",
      "to": "0xe7f1725e7734ce288f8367e1bb143e90bb3f0512",
      "contractAddress": null
    },
    {
      "status": "0x1",
      "cumulativeGasUsed": "0x298bd",
      "logs": [
        {
          "address": "0xe7f1725e7734ce288f8367e1bb143e90bb3f0512",
          "topics": [
            "0xddf252ad1be2c89b69c2b068fc378daa952ba7f163c4a11628f55a4df523b3ef",
            "0x000000000000000000000000f39fd6e51aad88f6f4ce6ab8827279cfffb92266",
            "0x0000000000000000000000009fe46736679d2d9a65f0992f2272de9f3c7fa6e0"
          ],
          "data": "0x0000000000000000000000000000000000000000000000000000000000001388",
          "blockHash": "0xf0d86d5634181a84e85a23f4dff7930ec96ac46cc522b966408a98ae1583abff",
          "blockNumber": "0x6",
          "blockTimestamp": "0x69b37a61",
          "transactionHash": "0x2ba479e5e326dc7944b5445ff360762a15536925c9315458f5bc97f8ddce2df1",
          "transactionIndex": "0x0",
          "logIndex": "0x0",
          "removed": false
        },
        {
          "address": "0x9fe46736679d2d9a65f0992f2272de9f3c7fa6e0",
          "topics": [
            "0x98868c46d49b200d82c273c9f28d73265826ca6567690262736450563dfff64c",
            "0x0000000000000000000000000000000000000000000000000000000000000000",
            "0x000000000000000000000000f39fd6e51aad88f6f4ce6ab8827279cfffb92266"
          ],
          "data": "0x0000000000000000000000000000000000000000000000000000000000001388000000000000000000000000000000000000000000000000000009184e72a000",
          "blockHash": "0xf0d86d5634181a84e85a23f4dff7930ec96ac46cc522b966408a98ae1583abff",
          "blockNumber": "0x6",
          "blockTimestamp": "0x69b37a61",
          "transactionHash": "0x2ba479e5e326dc7944b5445ff360762a15536925c9315458f5bc97f8ddce2df1",
          "transactionIndex": "0x0",
          "logIndex": "0x1",
          "removed": false
        }
      ],
      "logsBloom": "0x00000000000000000000000000000000000000000000000000000000000000000010000000000000000400000000000010400000000040200000000000000000000000000000000000000008000000000000000000000000000000000000400000002000020000000000000100000800000000000000000000000010000000000000000000000000000000000000000000000000000000000000000004000000000000000000000000000000000000000000000000000000000000000000000000000002000000200000000000001000000000002000000000000000000020000000000000000000000000000000000000000000000000c00000000000000000",
      "type": "0x2",
      "transactionHash": "0x2ba479e5e326dc7944b5445ff360762a15536925c9315458f5bc97f8ddce2df1",
      "transactionIndex": "0x0",
      "blockHash": "0xf0d86d5634181a84e85a23f4dff7930ec96ac46cc522b966408a98ae1583abff",
      "blockNumber": "0x6",
      "gasUsed": "0x298bd",
      "effectiveGasPrice": "0x2046afc4",
      "blobGasPrice": "0x1",
      "from": "0xf39fd6e51aad88f6f4ce6ab8827279cfffb92266",
      "to": "0x9fe46736679d2d9a65f0992f2272de9f3c7fa6e0",
      "contractAddress": null
    }
  ],
  "libraries": [],
  "pending": [],
  "returns": {},
  "timestamp": 1773369953374,
  "chain": 31337,
  "commit": "3a7f462"
}